{
  "transactions": [
    {
      "hash": "0x2c0f896068510dc6eaba78ec852ed2e308614f73cd178ff79859136378032dc3",
      "transactionType": "CALL",
      "contractName": null,
      "contractAddress": "0x779877a7b0d9e8603169ddbd7836e478b4624789",
      "function": "transferAndCall(address,uint256,bytes)",
      "arguments": [
        "0x9DdfaCa8183c41ad55329BdeeD9F6A8d53168B1B",
        "5000000000000000000",
        "0xb8cd2159beadc37e1bbcbae56b6e86fbe9d0f57d2dfa6ea0b13d1cccb1e7c896"
      ],
      "transaction": {
        "from": "0x0c0574342e1cae83b385520ca04dac495f444498",
        "to": "0x779877a7b0d9e8603169ddbd7836e478b4624789",
        "gas": "0x14cbb",
        "value": "0x0",
        "input": "0x4000aea00000000000000000000000009ddfaca8183c41ad55329bdeed9f6a8d53168b1b0000000000000000000000000000000000000000000000004563918244f4000000000000000000000000000000000000000000000000000000000000000000600000000000000000000000000000000000000000000000000000000000000020b8cd2159beadc37e1bbcbae56b6e86fbe9d0f57d2dfa6ea0b13d1cccb1e7c896",
        "nonce": "0xc",
        "chainId": "0xaa36a7"
      },
      "additionalContracts": [],
      "isFixedGasLimit": false
    },
    {
      "hash": "0x85e3b4dc4a0905e5d77108fcc17050b954e08e906513d6601d2ade8c383ad67f",
      "transactionType": "CREATE",
      "contractName": null,
      "contractAddress": "0x54da3d741954d553e687570552e03ef9a7611c63",
      "function": null,
      "arguments": null,
      "transaction": {
        "from": "0x0c0574342e1cae83b385520ca04dac495f444498",
        "gas": "0x133e07",
        "value": "0x0",
        "input": "0x61012060405234801561001157600080fd5b506040516111cb3803806111cb833981016040819052610030916101e3565b8033806000816100875760405162461bcd60e51b815260206004820152601860248201527f43616e6e6f7420736574206f776e657220746f207a65726f000000000000000060448201526064015b60405180910390fd5b600080546001600160a01b0319166001600160a01b03848116919091179091558116156100b7576100b78161013a565b5050506001600160a01b0381166100e15760405163d92e233d60e01b815260040160405180910390fd5b600280546001600160a01b0319166001600160a01b03929092169190911790555060e09390935260a09190915260c0929092526080919091524260045563ffffffff16610100526005805460ff60a01b19169055610257565b336001600160a01b038216036101925760405162461bcd60e51b815260206004820152601760248201527f43616e6e6f74207472616e7366657220746f2073656c66000000000000000000604482015260640161007e565b600180546001600160a01b0319166001600160a01b0383811691821790925560008054604051929316917fed8889f560326eb138920d842192f0eb3dd22b4f139c87a2c57538e05bae12789190a350565b60008060008060008060c087890312156101fc57600080fd5b86519550602087015194506040870151935060608701519250608087015163ffffffff8116811461022c57600080fd5b60a08801519092506001600160a01b038116811461024957600080fd5b809150509295509295509295565b60805160a05160c05160e05161010051610f2a6102a160003960006104e901526000610491015260006104b40152600061060801526000818160f101526103140152610f2a6000f3fe6080604052600436106100dd5760003560e01c806379ba50971161007f5780639eccacf6116100595780639eccacf614610248578063c1c244e814610268578063e55ae4e81461027d578063f2fde38b1461029d57600080fd5b806379ba5097146101f55780638da5cb5b1461020a5780638ea981171461022857600080fd5b80632cfcc539116100bb5780632cfcc5391461016d5780634585e33b14610175578063473f1ddc146101955780636e04ff0d146101c757600080fd5b806309bc33a7146100e2578063115cbaf5146101245780631fe543e31461014b575b600080fd5b3480156100ee57600080fd5b507f00000000000000000000000000000000000000000000000000000000000000005b6040519081526020015b60405180910390f35b34801561013057600080fd5b50600554600160a01b900460ff1660405161011b9190610b8d565b34801561015757600080fd5b5061016b610166366004610bb5565b6102bd565b005b61016b610312565b34801561018157600080fd5b5061016b610190366004610c34565b6103ff565b3480156101a157600080fd5b506005546001600160a01b03165b6040516001600160a01b03909116815260200161011b565b3480156101d357600080fd5b506101e76101e2366004610cbc565b6105d8565b60405161011b929190610db3565b34801561020157600080fd5b5061016b61067a565b34801561021657600080fd5b506000546001600160a01b03166101af565b34801561023457600080fd5b5061016b610243366004610dd6565b610724565b34801561025457600080fd5b506002546101af906001600160a01b031681565b34801561027457600080fd5b50600454610111565b34801561028957600080fd5b506101af610298366004610e06565b610816565b3480156102a957600080fd5b5061016b6102b8366004610dd6565b610846565b6002546001600160a01b031633146103025760025460405163073e64fd60e21b81523360048201526001600160a01b0390911660248201526044015b60405180910390fd5b61030d83838361085a565b505050565b7f00000000000000000000000000000000000000000000000000000000000000003410156103535760405163181c600560e11b815260040160405180910390fd5b6000600554600160a01b900460ff16600181111561037357610373610b77565b146103915760405163349289c560e21b815260040160405180910390fd5b6003805460018101825560009182527fc2575a0e9e593c00f959f8c92f12db2869c3395a3b0502d05e2516446f71f85b0180546001600160a01b0319163390811790915560405190917f0805e1d667bddb8a95f0f09880cf94f403fb596ce79928d9f29b74203ba284d491a2565b6000610419604051806020016040528060008152506105d8565b5090508061046f57600354600554479190600160a01b900460ff16600181111561044557610445610b77565b604051632c2193d560e11b81526004810193909352602483019190915260448201526064016102f9565b6005805460ff60a01b1916600160a01b1790556002546040805160c0810182527f000000000000000000000000000000000000000000000000000000000000000081527f000000000000000000000000000000000000000000000000000000000000000060208083019190915260038284015263ffffffff7f00000000000000000000000000000000000000000000000000000000000000001660608301526001608083015282519081019092526000808352926001600160a01b031691639b1c385e919060a08201906105429061098e565b8152506040518263ffffffff1660e01b81526004016105619190610e1f565b6020604051808303816000875af1158015610580573d6000803e3d6000fd5b505050506040513d601f19601f820116820180604052508101906105a49190610e7c565b60405190915081907fcd6e45c8998311cab7e9d4385596cac867e20a0587194b954fa3a731c93ce78b90600090a250505050565b600060606000600560149054906101000a900460ff1660018111156105ff576105ff610b77565b600014905060007f0000000000000000000000000000000000000000000000000000000000000000600454426106359190610e95565b60035491109150151547151582801561064b5750835b80156106545750805b801561065d5750815b604080516020810190915260008152909890975095505050505050565b6001546001600160a01b031633146106cd5760405162461bcd60e51b815260206004820152601660248201527526bab9ba10313290383937b837b9b2b21037bbb732b960511b60448201526064016102f9565b60008054336001600160a01b0319808316821784556001805490911690556040516001600160a01b0390921692909183917f8be0079c531659141344cd1fd0a4f28419497f9722a3daafe3b4186f6b6457e091a350565b6000546001600160a01b0316331480159061074a57506002546001600160a01b03163314155b1561079b57336107626000546001600160a01b031690565b60025460405163061db9c160e01b81526001600160a01b03938416600482015291831660248301529190911660448201526064016102f9565b6001600160a01b0381166107c25760405163d92e233d60e01b815260040160405180910390fd5b600280546001600160a01b0319166001600160a01b0383169081179091556040519081527fd1a6a14209a385a964d036e404cb5cfb71f4000cdb03c9366292430787261be69060200160405180910390a150565b60006003828154811061082b5761082b610ebc565b6000918252602090912001546001600160a01b031692915050565b61084e6109ff565b61085781610a54565b50565b6003546000908383838161087057610870610ebc565b905060200201356108819190610ed2565b905060006003828154811061089857610898610ebc565b6000918252602082200154600580546001600160a81b0319166001600160a01b039092169182179055604051909250829047908381818185875af1925050503d8060008114610903576040519150601f19603f3d011682016040523d82523d6000602084013e610908565b606091505b505042600455604080516000815260208101918290525191925061092f9160039190610afd565b508061094e5760405163a1d04b3960e01b815260040160405180910390fd5b6005546040516001600160a01b03909116907f5b690ec4a06fe979403046eaeea5b3ce38524683c3001f662c8b5a829632f7df90600090a2505050505050565b60607f92fd13387c7fe7befbc38d303d6468778fb9731bc4583f17d92989c6fcfdeaaa826040516024016109c791511515815260200190565b60408051601f198184030181529190526020810180516001600160e01b03166001600160e01b03199093169290921790915292915050565b6000546001600160a01b03163314610a525760405162461bcd60e51b815260206004820152601660248201527527b7363c9031b0b63630b1363290313c9037bbb732b960511b60448201526064016102f9565b565b336001600160a01b03821603610aac5760405162461bcd60e51b815260206004820152601760248201527f43616e6e6f74207472616e7366657220746f2073656c6600000000000000000060448201526064016102f9565b600180546001600160a01b0319166001600160a01b0383811691821790925560008054604051929316917fed8889f560326eb138920d842192f0eb3dd22b4f139c87a2c57538e05bae12789190a350565b828054828255906000526020600020908101928215610b52579160200282015b82811115610b5257825182546001600160a01b0319166001600160a01b03909116178255602090920191600190910190610b1d565b50610b5e929150610b62565b5090565b5b80821115610b5e5760008155600101610b63565b634e487b7160e01b600052602160045260246000fd5b6020810160028310610baf57634e487b7160e01b600052602160045260246000fd5b91905290565b600080600060408486031215610bca57600080fd5b83359250602084013567ffffffffffffffff80821115610be957600080fd5b818601915086601f830112610bfd57600080fd5b813581811115610c0c57600080fd5b8760208260051b8501011115610c2157600080fd5b6020830194508093505050509250925092565b60008060208385031215610c4757600080fd5b823567ffffffffffffffff80821115610c5f57600080fd5b818501915085601f830112610c7357600080fd5b813581811115610c8257600080fd5b866020828501011115610c9457600080fd5b60209290920196919550909350505050565b634e487b7160e01b600052604160045260246000fd5b600060208284031215610cce57600080fd5b813567ffffffffffffffff80821115610ce657600080fd5b818401915084601f830112610cfa57600080fd5b813581811115610d0c57610d0c610ca6565b604051601f8201601f19908116603f01168101908382118183101715610d3457610d34610ca6565b81604052828152876020848701011115610d4d57600080fd5b826020860160208301376000928101602001929092525095945050505050565b6000815180845260005b81811015610d9357602081850181015186830182015201610d77565b506000602082860101526020601f19601f83011685010191505092915050565b8215158152604060208201526000610dce6040830184610d6d565b949350505050565b600060208284031215610de857600080fd5b81356001600160a01b0381168114610dff57600080fd5b9392505050565b600060208284031215610e1857600080fd5b5035919050565b60208152815160208201526020820151604082015261ffff60408301511660608201526000606083015163ffffffff80821660808501528060808601511660a0850152505060a083015160c080840152610dce60e0840182610d6d565b600060208284031215610e8e57600080fd5b5051919050565b81810381811115610eb657634e487b7160e01b600052601160045260246000fd5b92915050565b634e487b7160e01b600052603260045260246000fd5b600082610eef57634e487b7160e01b600052601260045260246000fd5b50069056fea26469706673582212207d8f6268f91ebacd738a6b1eea577cee4c62cde2d4da27ccd03292fb541f020d64736f6c63430008130033b8cd2159beadc37e1bbcbae56b6e86fbe9d0f57d2dfa6ea0b13d1cccb1e7c896787d74caea10b2b357790d5b5247c2f63d1d91572a9846f780606e4d953677ae000000000000000000000000000000000000000000000000000000000000001e000000000000000000000000000000000000000000000000002386f26fc10000000000000000000000000000000000000000000000000000000000000007a1200000000000000000000000009ddfaca8183c41ad55329bdeed9f6a8d53168b1b",
        "nonce": "0xd",
        "chainId": "0xaa36a7"
      },
      "additionalContracts": [],
      "isFixedGasLimit": false
    },
    {
      "hash": "0xf791309c2f9e08d0ae8c47867ac6de0628eb8bafbbc2734774597c00c3e30273",
      "transactionType": "CALL",
      "contractName": null,
      "contractAddress": "0x9ddfaca8183c41ad55329bdeed9f6a8d53168b1b",
      "function": "addConsumer(uint256,address)",
      "arguments": [
        "83587997964746099346911720153126067685994569117533078971848767242578831067286",
        "0x54dA3D741954d553e687570552e03eF9A7611C63"
      ],
      "transaction": {
        "from": "0x0c0574342e1cae83b385520ca04dac495f444498",
        "to": "0x9ddfaca8183c41ad55329bdeed9f6a8d53168b1b",
        "gas": "0x21fc9",
        "value": "0x0",
        "input": "0xbec4c08cb8cd2159beadc37e1bbcbae56b6e86fbe9d0f57d2dfa6ea0b13d1cccb1e7c89600000000000000000000000054da3d741954d553e687570552e03ef9a7611c63",
        "nonce": "0xe",
        "chainId": "0xaa36a7"
      },
      "additionalContracts": [],
      "isFixedGasLimit": false
    }
  ],
  "receipts": [
    {
      "status": "0x1",
      "cumulativeGasUsed": "0x44a6a6",
      "logs": [
        {
          "address": "0x779877a7b0d9e8603169ddbd7836e478b4624789",
          "topics": [
            "0xddf252ad1be2c89b69c2b068fc378daa952ba7f163c4a11628f55a4df523b3ef",
            "0x0000000000000000000000000c0574342e1cae83b385520ca04dac495f444498",
            "0x0000000000000000000000009ddfaca8183c41ad55329bdeed9f6a8d53168b1b"
          ],
          "data": "0x0000000000000000000000000000000000000000000000004563918244f40000",
          "blockHash": "0xe7d6e371c58b654ffd9239e3e84f9fc39e41d6f9181d7689f346e568b46a42f4",
          "blockNumber": "0x634d52",
          "transactionHash": "0x2c0f896068510dc6eaba78ec852ed2e308614f73cd178ff79859136378032dc3",
          "transactionIndex": "0x25",
          "logIndex": "0x29",
          "removed": false
        },
        {
          "address": "0x779877a7b0d9e8603169ddbd7836e478b4624789",
          "topics": [
            "0xe19260aff97b920c7df27010903aeb9c8d2be5d310a2c67824cf3f15396e4c16",
            "0x0000000000000000000000000c0574342e1cae83b385520ca04dac495f444498",
            "0x0000000000000000000000009ddfaca8183c41ad55329bdeed9f6a8d53168b1b"
          ],
          "data": "0x0000000000000000000000000000000000000000000000004563918244f4000000000000000000000000000000000000000000000000000000000000000000400000000000000000000000000000000000000000000000000000000000000020b8cd2159beadc37e1bbcbae56b6e86fbe9d0f57d2dfa6ea0b13d1cccb1e7c896",
          "blockHash": "0xe7d6e371c58b654ffd9239e3e84f9fc39e41d6f9181d7689f346e568b46a42f4",
          "blockNumber": "0x634d52",
          "transactionHash": "0x2c0f896068510dc6eaba78ec852ed2e308614f73cd178ff79859136378032dc3",
          "transactionIndex": "0x25",
          "logIndex": "0x2a",
          "removed": false
        },
        {
          "address": "0x9ddfaca8183c41ad55329bdeed9f6a8d53168b1b",
          "topics": [
            "0x1ced9348ff549fceab2ac57cd3a9de38edaaab274b725ee82c23e8fc8c4eec7a",
            "0xb8cd2159beadc37e1bbcbae56b6e86fbe9d0f57d2dfa6ea0b13d1cccb1e7c896"
          ],
          "data": "0x00000000000000000000000000000000000000000000000000b1a2bc2ec500000000000000000000000000000000000000000000000000004615343e73b90000",
          "blockHash": "0xe7d6e371c58b654ffd9239e3e84f9fc39e41d6f9181d7689f346e568b46a42f4",
          "blockNumber": "0x634d52",
          "transactionHash": "0x2c0f896068510dc6eaba78ec852ed2e308614f73cd178ff79859136378032dc3",
          "transactionIndex": "0x25",
          "logIndex": "0x2b",
          "removed": false
        }
      ],
      "logsBloom": "0x00020004000000000000000000000000000000000020004000000000020000000000000000000000000000000000000000000000000000000000000000000000000000000000000000000008000000000000000000000000000020000020000008000000000000000000000000000000000000000000000000000010000040000000000800000000000000010000800000000020000000000000000000000000000000000400000000000000010000000000000000000000000004000000000000000402000000000000000000000000000000000000000100000000000000000010000000000000800000000000100000000000000000000000000000000000",
      "type": "0x2",
      "transactionHash": "0x2c0f896068510dc6eaba78ec852ed2e308614f73cd178ff79859136378032dc3",
      "transactionIndex": "0x25",
      "blockHash": "0xe7d6e371c58b654ffd9239e3e84f9fc39e41d6f9181d7689f346e568b46a42f4",
      "blockNumber": "0x634d52",
      "gasUsed": "0xf0e5",
      "effectiveGasPrice": "0x1f5054cd",
      "from": "0x0c0574342e1cae83b385520ca04dac495f444498",
      "to": "0x779877a7b0d9e8603169ddbd7836e478b4624789",
      "contractAddress": null
    },
    {
      "status": "0x1",
      "cumulativeGasUsed": "0x537511",
      "logs": [],
      "logsBloom": "0x00000000000000000000000000000000000000000000000000000000000000000000000000000000000000000000000000000000000000000000000000000000000000000000000000000000000000000000000000000000000000000000000000000000000000000000000000000000000000000000000000000000000000000000000000000000000000000000000000000000000000000000000000000000000000000000000000000000000000000000000000000000000000000000000000000000000000000000000000000000000000000000000000000000000000000000000000000000000000000000000000000000000000000000000000000000",
      "type": "0x2",
      "transactionHash": "0x85e3b4dc4a0905e5d77108fcc17050b954e08e906513d6601d2ade8c383ad67f",
      "transactionIndex": "0x26",
      "blockHash": "0xe7d6e371c58b654ffd9239e3e84f9fc39e41d6f9181d7689f346e568b46a42f4",
      "blockNumber": "0x634d52",
      "gasUsed": "0xece6b",
      "effectiveGasPrice": "0x1f5054cd",
      "from": "0x0c0574342e1cae83b385520ca04dac495f444498",
      "to": null,
      "contractAddress": "0x54da3d741954d553e687570552e03ef9a7611c63"
    },
    {
      "status": "0x1",
      "cumulativeGasUsed": "0x54e8e3",
      "logs": [
        {
          "address": "0x9ddfaca8183c41ad55329bdeed9f6a8d53168b1b",
          "topics": [
            "0x1e980d04aa7648e205713e5e8ea3808672ac163d10936d36f91b2c88ac1575e1",
            "0xb8cd2159beadc37e1bbcbae56b6e86fbe9d0f57d2dfa6ea0b13d1cccb1e7c896"
          ],
          "data": "0x00000000000000000000000054da3d741954d553e687570552e03ef9a7611c63",
          "blockHash": "0xe7d6e371c58b654ffd9239e3e84f9fc39e41d6f9181d7689f346e568b46a42f4",
          "blockNumber": "0x634d52",
          "transactionHash": "0xf791309c2f9e08d0ae8c47867ac6de0628eb8bafbbc2734774597c00c3e30273",
          "transactionIndex": "0x27",
          "logIndex": "0x2c",
          "removed": false
        }
      ],
      "logsBloom": "0x00020000000000000000000000000080000000000020000000000000000000000000000000000000000000000000000000000000000000000000000000000000000000000000000000000000000000000000000000000001000000000000000008000000000000000000000000000000000000000000000000002000000000000000000800000000000000010000000000000000000000000000000000000000000000000400000000000000000000000000000000000000000000000000000000000000000000000000000000000000000000000000000000000000000000000000000000000000000000000000000000000000000000000000000000000000",
      "type": "0x2",
      "transactionHash": "0xf791309c2f9e08d0ae8c47867ac6de0628eb8bafbbc2734774597c00c3e30273",
      "transactionIndex": "0x27",
      "blockHash": "0xe7d6e371c58b654ffd9239e3e84f9fc39e41d6f9181d7689f346e568b46a42f4",
      "blockNumber": "0x634d52",
      "gasUsed": "0x173d2",
      "effectiveGasPrice": "0x1f5054cd",
      "from": "0x0c0574342e1cae83b385520ca04dac495f444498",
      "to": "0x9ddfaca8183c41ad55329bdeed9f6a8d53168b1b",
      "contractAddress": null
    }
  ],
  "libraries": [],
  "pending": [],
  "returns": {},
  "timestamp": 1723765778,
  "chain": 11155111,
  "commit": "21c7115"
}