{
  "transactions": [
    {
      "hash": "0xa30e3d10ab85aab74583c644b0600c3af430087c0d04e7726efc20bc14c6ad9c",
      "transactionType": "CALL",
      "contractName": null,
      "contractAddress": "0x779877a7b0d9e8603169ddbd7836e478b4624789",
      "function": "transferAndCall(address,uint256,bytes)",
      "arguments": [
        "0x9DdfaCa8183c41ad55329BdeeD9F6A8d53168B1B",
        "50000000000000000",
        "0xb8cd2159beadc37e1bbcbae56b6e86fbe9d0f57d2dfa6ea0b13d1cccb1e7c896"
      ],
      "transaction": {
        "from": "0x0c0574342e1cae83b385520ca04dac495f444498",
        "to": "0x779877a7b0d9e8603169ddbd7836e478b4624789",
        "gas": "0x1a8ee",
        "value": "0x0",
        "input": "0x4000aea00000000000000000000000009ddfaca8183c41ad55329bdeed9f6a8d53168b1b00000000000000000000000000000000000000000000000000b1a2bc2ec5000000000000000000000000000000000000000000000000000000000000000000600000000000000000000000000000000000000000000000000000000000000020b8cd2159beadc37e1bbcbae56b6e86fbe9d0f57d2dfa6ea0b13d1cccb1e7c896",
        "nonce": "0xb",
        "chainId": "0xaa36a7"
      },
      "additionalContracts": [],
      "isFixedGasLimit": false
    }
  ],
  "receipts": [
    {
      "status": "0x1",
      "cumulativeGasUsed": "0x1600d0b",
      "logs": [
        {
          "address": "0x779877a7b0d9e8603169ddbd7836e478b4624789",
          "topics": [
            "0xddf252ad1be2c89b69c2b068fc378daa952ba7f163c4a11628f55a4df523b3ef",
            "0x0000000000000000000000000c0574342e1cae83b385520ca04dac495f444498",
            "0x0000000000000000000000009ddfaca8183c41ad55329bdeed9f6a8d53168b1b"
          ],
          "data": "0x00000000000000000000000000000000000000000000000000b1a2bc2ec50000",
          "blockHash": "0x14babcab725c2bd38b261164394075299d6676cdce8fc3fc72f75b6333917bf9",
          "blockNumber": "0x63369b",
          "transactionHash": "0xa30e3d10ab85aab74583c644b0600c3af430087c0d04e7726efc20bc14c6ad9c",
          "transactionIndex": "0x35",
          "logIndex": "0x8b",
          "removed": false
        },
        {
          "address": "0x779877a7b0d9e8603169ddbd7836e478b4624789",
          "topics": [
            "0xe19260aff97b920c7df27010903aeb9c8d2be5d310a2c67824cf3f15396e4c16",
            "0x0000000000000000000000000c0574342e1cae83b385520ca04dac495f444498",
            "0x0000000000000000000000009ddfaca8183c41ad55329bdeed9f6a8d53168b1b"
          ],
          "data": "0x00000000000000000000000000000000000000000000000000b1a2bc2ec5000000000000000000000000000000000000000000000000000000000000000000400000000000000000000000000000000000000000000000000000000000000020b8cd2159beadc37e1bbcbae56b6e86fbe9d0f57d2dfa6ea0b13d1cccb1e7c896",
          "blockHash": "0x14babcab725c2bd38b261164394075299d6676cdce8fc3fc72f75b6333917bf9",
          "blockNumber": "0x63369b",
          "transactionHash": "0xa30e3d10ab85aab74583c644b0600c3af430087c0d04e7726efc20bc14c6ad9c",
          "transactionIndex": "0x35",
          "logIndex": "0x8c",
          "removed": false
        },
        {
          "address": "0x9ddfaca8183c41ad55329bdeed9f6a8d53168b1b",
          "topics": [
            "0x1ced9348ff549fceab2ac57cd3a9de38edaaab274b725ee82c23e8fc8c4eec7a",
            "0xb8cd2159beadc37e1bbcbae56b6e86fbe9d0f57d2dfa6ea0b13d1cccb1e7c896"
          ],
          "data": "0x000000000000000000000000000000000000000000000000000000000000000000000000000000000000000000000000000000000000000000b1a2bc2ec50000",
          "blockHash": "0x14babcab725c2bd38b261164394075299d6676cdce8fc3fc72f75b6333917bf9",
          "blockNumber": "0x63369b",
          "transactionHash": "0xa30e3d10ab85aab74583c644b0600c3af430087c0d04e7726efc20bc14c6ad9c",
          "transactionIndex": "0x35",
          "logIndex": "0x8d",
          "removed": false
        }
      ],
      "logsBloom": "0x00020004000000000000000000000000000000000020004000000000020000000000000000000000000000000000000000000000000000000000000000000000000000000000000000000008000000000000000000000000000020000020000008000000000000000000000000000000000000000000000000000010000040000000000800000000000000010000800000000020000000000000000000000000000000000400000000000000010000000000000000000000000004000000000000000402000000000000000000000000000000000000000100000000000000000010000000000000800000000000100000000000000000000000000000000000",
      "type": "0x2",
      "transactionHash": "0xa30e3d10ab85aab74583c644b0600c3af430087c0d04e7726efc20bc14c6ad9c",
      "transactionIndex": "0x35",
      "blockHash": "0x14babcab725c2bd38b261164394075299d6676cdce8fc3fc72f75b6333917bf9",
      "blockNumber": "0x63369b",
      "gasUsed": "0x133a5",
      "effectiveGasPrice": "0x77f4b2cc",
      "from": "0x0c0574342e1cae83b385520ca04dac495f444498",
      "to": "0x779877a7b0d9e8603169ddbd7836e478b4624789",
      "contractAddress": null
    }
  ],
  "libraries": [],
  "pending": [],
  "returns": {},
  "timestamp": 1723685961,
  "chain": 11155111,
  "commit": "9d71cb7"
}